{"abi":[{"type":"function","name":"set","inputs":[{"name":"v","type":"uint256","internalType":"uint256"}],"outputs":[],"stateMutability":"nonpayable"}],"bytecode":{"object":"0x6080604052348015600e575f5ffd5b5060d980601a5f395ff3fe6080604052348015600e575f5ffd5b50600436106026575f3560e01c806360fe47b114602a575b5f5ffd5b60406004803603810190603c9190607d565b6042565b005b805f8190555050565b5f5ffd5b5f819050919050565b605f81604f565b81146068575f5ffd5b50565b5f813590506077816058565b92915050565b5f60208284031215608f57608e604b565b5b5f609a84828501606b565b9150509291505056fea2646970667358221220d04f3c7ab5b590ac05c6bfd2ccadd5f39995b4fe534851725dc7d5d9336473fc64736f6c63430008210033","linkReferences":{}},"methodIdentifiers":{"set(uint256)":"60fe47b1"},"id":22}